:040000000128FC2FA8
:100F340070080339F200F20E250013087206CF3947
:100F4400720693007108F3007008F200F336F20C95
:100F5400F336F20C720891000800F501F601CD2772
:100F640003307602FF30031975020318CC2F76087C
:100F7400F1007508F0009A277508023EF50000306C
:100F8400763DF6003430F400F230890BC72FF40BB1
:100F9400C72FB22FCC2F2100991378309904190848
:100FA400FC3902389900E03023008C0521001D1023
:100FB4002200981321000C100C158C150C128C16A1
:100FC40022000C100C128C1221008C1622001D140D
:100FD4007B3020009B0025001308F0390C38930067
:100FE4003F3093052000911003309C041C15210010
:0C0FF4008C120800F501F6012000AF2F60
:020000040001F9
:04000E00E4C9FFDE64
:00000001FF
