:040000000128FC2FA8
:100F0E0070080339F200F20E250013087206CF396D
:100F1E00720693007108F3007008F200F336F20CBB
:100F2E00F336F20C72089100080021009913783004
:100F3E0099041908FC3902389900E03023008C0519
:100F4E0021001D102200981321000C100C158C1579
:100F5E000C128C1622000C100C128C1221008C1606
:100F6E0022001D147B3020009B0025001308F03951
:100F7E000C3893003F30930520009110FC309C05F7
:100F8E001C1521000C110800F801F9019C27F6012F
:100F9E00F7017708803AF40084307402031DD92FCC
:100FAE00003076020318FB2F7708F1007608F00068
:100FBE0087270330F5000830F4007730890BE52FD2
:100FCE00F40BE52FF50BE52F00002030F60700306F
:100FDE00F73D7708803AF40084307402031DF92F30
:100FEE0000307602031CDB2F0128F801F9012000E6
:020FFE00CB2FF7
:020000040001F9
:04000E00E4C9FFDE64
:00000001FF
